{
  "_format": "hh-sol-artifact-1",
  "contractName": "KBContract_v3",
  "sourceName": "contracts/KBContract_v3.sol",
  "abi": [
    {
      "inputs": [
        {
          "internalType": "address",
          "name": "_djbc",
          "type": "address"
        },
        {
          "internalType": "address",
          "name": "_adminBC",
          "type": "address"
        },
        {
          "internalType": "address",
          "name": "_operator",
          "type": "address"
        },
        {
          "internalType": "address",
          "name": "_auditorDJP",
          "type": "address"
        }
      ],
      "stateMutability": "nonpayable",
      "type": "constructor"
    },
    {
      "anonymous": false,
      "inputs": [
        {
          "indexed": true,
          "internalType": "bytes32",
          "name": "kodeFormula",
          "type": "bytes32"
        },
        {
          "indexed": false,
          "internalType": "bytes32",
          "name": "dataHash",
          "type": "bytes32"
        },
        {
          "indexed": false,
          "internalType": "uint256",
          "name": "timestamp",
          "type": "uint256"
        }
      ],
      "name": "BOMDivalidasi",
      "type": "event"
    },
    {
      "anonymous": false,
      "inputs": [
        {
          "indexed": true,
          "internalType": "bytes32",
          "name": "idBeritaAcara",
          "type": "bytes32"
        },
        {
          "indexed": true,
          "internalType": "bytes32",
          "name": "kodeBarang",
          "type": "bytes32"
        },
        {
          "indexed": false,
          "internalType": "uint256",
          "name": "jumlah",
          "type": "uint256"
        },
        {
          "indexed": false,
          "internalType": "bytes32",
          "name": "dataHash",
          "type": "bytes32"
        },
        {
          "indexed": false,
          "internalType": "uint256",
          "name": "timestamp",
          "type": "uint256"
        }
      ],
      "name": "BarangDimusnahkan",
      "type": "event"
    },
    {
      "anonymous": false,
      "inputs": [
        {
          "indexed": true,
          "internalType": "bytes32",
          "name": "idDokumen",
          "type": "bytes32"
        },
        {
          "indexed": true,
          "internalType": "bytes32",
          "name": "kodeBarang",
          "type": "bytes32"
        },
        {
          "indexed": false,
          "internalType": "enum KBContract_v3.JenisDokumenKeluar",
          "name": "jenisDokumen",
          "type": "uint8"
        },
        {
          "indexed": false,
          "internalType": "uint256",
          "name": "jumlah",
          "type": "uint256"
        },
        {
          "indexed": false,
          "internalType": "bytes32",
          "name": "dataHash",
          "type": "bytes32"
        },
        {
          "indexed": false,
          "internalType": "uint256",
          "name": "timestamp",
          "type": "uint256"
        }
      ],
      "name": "BarangKeluarDicatat",
      "type": "event"
    },
    {
      "anonymous": false,
      "inputs": [
        {
          "indexed": true,
          "internalType": "bytes32",
          "name": "idDokumen",
          "type": "bytes32"
        },
        {
          "indexed": true,
          "internalType": "bytes32",
          "name": "kodeBarang",
          "type": "bytes32"
        },
        {
          "indexed": false,
          "internalType": "enum KBContract_v3.JenisDokumenMasuk",
          "name": "jenisDokumen",
          "type": "uint8"
        },
        {
          "indexed": false,
          "internalType": "uint256",
          "name": "jumlah",
          "type": "uint256"
        },
        {
          "indexed": false,
          "internalType": "bytes32",
          "name": "dataHash",
          "type": "bytes32"
        },
        {
          "indexed": false,
          "internalType": "uint256",
          "name": "timestamp",
          "type": "uint256"
        }
      ],
      "name": "BarangMasukDicatat",
      "type": "event"
    },
    {
      "anonymous": false,
      "inputs": [
        {
          "indexed": true,
          "internalType": "bytes32",
          "name": "idBatch",
          "type": "bytes32"
        },
        {
          "indexed": true,
          "internalType": "bytes32",
          "name": "kodeProduk",
          "type": "bytes32"
        },
        {
          "indexed": false,
          "internalType": "uint256",
          "name": "jumlahOutput",
          "type": "uint256"
        },
        {
          "indexed": false,
          "internalType": "bytes32",
          "name": "dataHash",
          "type": "bytes32"
        },
        {
          "indexed": false,
          "internalType": "uint256",
          "name": "timestamp",
          "type": "uint256"
        }
      ],
      "name": "HasilProduksiDicatat",
      "type": "event"
    },
    {
      "anonymous": false,
      "inputs": [
        {
          "indexed": false,
          "internalType": "bool",
          "name": "statusBaru",
          "type": "bool"
        },
        {
          "indexed": false,
          "internalType": "address",
          "name": "oleh",
          "type": "address"
        },
        {
          "indexed": false,
          "internalType": "uint256",
          "name": "timestamp",
          "type": "uint256"
        }
      ],
      "name": "IzinKBDiperbarui",
      "type": "event"
    },
    {
      "anonymous": false,
      "inputs": [
        {
          "indexed": true,
          "internalType": "bytes32",
          "name": "kodeBarang",
          "type": "bytes32"
        },
        {
          "indexed": false,
          "internalType": "uint256",
          "name": "saldoLama",
          "type": "uint256"
        },
        {
          "indexed": false,
          "internalType": "uint256",
          "name": "saldoBaru",
          "type": "uint256"
        },
        {
          "indexed": false,
          "internalType": "bytes32",
          "name": "alasanHash",
          "type": "bytes32"
        },
        {
          "indexed": false,
          "internalType": "uint256",
          "name": "timestamp",
          "type": "uint256"
        }
      ],
      "name": "SaldoAdjusted",
      "type": "event"
    },
    {
      "anonymous": false,
      "inputs": [
        {
          "indexed": true,
          "internalType": "bytes32",
          "name": "idDokumenBC25",
          "type": "bytes32"
        },
        {
          "indexed": true,
          "internalType": "bytes32",
          "name": "kodeBarang",
          "type": "bytes32"
        },
        {
          "indexed": false,
          "internalType": "uint256",
          "name": "jumlah",
          "type": "uint256"
        },
        {
          "indexed": false,
          "internalType": "bytes32",
          "name": "dataHash",
          "type": "bytes32"
        },
        {
          "indexed": false,
          "internalType": "uint256",
          "name": "timestamp",
          "type": "uint256"
        }
      ],
      "name": "ScrapDikeluarkan",
      "type": "event"
    },
    {
      "anonymous": false,
      "inputs": [
        {
          "indexed": true,
          "internalType": "bytes32",
          "name": "idOpname",
          "type": "bytes32"
        },
        {
          "indexed": false,
          "internalType": "bytes32",
          "name": "dataHash",
          "type": "bytes32"
        },
        {
          "indexed": false,
          "internalType": "uint256",
          "name": "timestamp",
          "type": "uint256"
        }
      ],
      "name": "StockOpnameDicatat",
      "type": "event"
    },
    {
      "anonymous": false,
      "inputs": [
        {
          "indexed": true,
          "internalType": "bytes32",
          "name": "idBatch",
          "type": "bytes32"
        },
        {
          "indexed": false,
          "internalType": "bytes32",
          "name": "dataHash",
          "type": "bytes32"
        },
        {
          "indexed": false,
          "internalType": "uint256",
          "name": "timestamp",
          "type": "uint256"
        }
      ],
      "name": "WIPDibuat",
      "type": "event"
    },
    {
      "inputs": [
        {
          "internalType": "bytes32",
          "name": "kodeBarang",
          "type": "bytes32"
        },
        {
          "internalType": "uint256",
          "name": "saldoBaru",
          "type": "uint256"
        },
        {
          "internalType": "bytes32",
          "name": "alasanHash",
          "type": "bytes32"
        }
      ],
      "name": "adjustSaldo",
      "outputs": [],
      "stateMutability": "nonpayable",
      "type": "function"
    },
    {
      "inputs": [],
      "name": "adminBC",
      "outputs": [
        {
          "internalType": "address",
          "name": "",
          "type": "address"
        }
      ],
      "stateMutability": "view",
      "type": "function"
    },
    {
      "inputs": [],
      "name": "auditorDJP",
      "outputs": [
        {
          "internalType": "address",
          "name": "",
          "type": "address"
        }
      ],
      "stateMutability": "view",
      "type": "function"
    },
    {
      "inputs": [
        {
          "internalType": "bytes32",
          "name": "idBatch",
          "type": "bytes32"
        },
        {
          "internalType": "bytes32",
          "name": "dataHash",
          "type": "bytes32"
        }
      ],
      "name": "buatWIP",
      "outputs": [],
      "stateMutability": "nonpayable",
      "type": "function"
    },
    {
      "inputs": [
        {
          "internalType": "bytes32",
          "name": "idDokumen",
          "type": "bytes32"
        },
        {
          "internalType": "bytes32",
          "name": "kodeBarang",
          "type": "bytes32"
        },
        {
          "internalType": "enum KBContract_v3.JenisDokumenKeluar",
          "name": "jenisDok",
          "type": "uint8"
        },
        {
          "internalType": "uint256",
          "name": "jumlah",
          "type": "uint256"
        },
        {
          "internalType": "bytes32",
          "name": "dataHash",
          "type": "bytes32"
        }
      ],
      "name": "catatBarangKeluar",
      "outputs": [],
      "stateMutability": "nonpayable",
      "type": "function"
    },
    {
      "inputs": [
        {
          "internalType": "bytes32",
          "name": "idDokumen",
          "type": "bytes32"
        },
        {
          "internalType": "bytes32",
          "name": "kodeBarang",
          "type": "bytes32"
        },
        {
          "internalType": "enum KBContract_v3.JenisDokumenMasuk",
          "name": "jenisDok",
          "type": "uint8"
        },
        {
          "internalType": "uint256",
          "name": "jumlah",
          "type": "uint256"
        },
        {
          "internalType": "bytes32",
          "name": "dataHash",
          "type": "bytes32"
        }
      ],
      "name": "catatBarangMasuk",
      "outputs": [],
      "stateMutability": "nonpayable",
      "type": "function"
    },
    {
      "inputs": [
        {
          "internalType": "bytes32",
          "name": "idBatch",
          "type": "bytes32"
        },
        {
          "internalType": "bytes32",
          "name": "kodeProduk",
          "type": "bytes32"
        },
        {
          "internalType": "uint256",
          "name": "jumlahOutput",
          "type": "uint256"
        },
        {
          "internalType": "bytes32[]",
          "name": "kodeBahanBaku",
          "type": "bytes32[]"
        },
        {
          "internalType": "uint256[]",
          "name": "jumlahBahan",
          "type": "uint256[]"
        },
        {
          "internalType": "bytes32",
          "name": "dataHash",
          "type": "bytes32"
        }
      ],
      "name": "catatHasilProduksi",
      "outputs": [],
      "stateMutability": "nonpayable",
      "type": "function"
    },
    {
      "inputs": [
        {
          "internalType": "bytes32",
          "name": "idBeritaAcara",
          "type": "bytes32"
        },
        {
          "internalType": "bytes32",
          "name": "kodeBarang",
          "type": "bytes32"
        },
        {
          "internalType": "uint256",
          "name": "jumlah",
          "type": "uint256"
        },
        {
          "internalType": "bytes32",
          "name": "dataHash",
          "type": "bytes32"
        }
      ],
      "name": "catatPemusnahan",
      "outputs": [],
      "stateMutability": "nonpayable",
      "type": "function"
    },
    {
      "inputs": [
        {
          "internalType": "bytes32",
          "name": "idDokumenBC25",
          "type": "bytes32"
        },
        {
          "internalType": "bytes32",
          "name": "kodeBarang",
          "type": "bytes32"
        },
        {
          "internalType": "uint256",
          "name": "jumlah",
          "type": "uint256"
        },
        {
          "internalType": "bytes32",
          "name": "dataHash",
          "type": "bytes32"
        }
      ],
      "name": "catatScrap",
      "outputs": [],
      "stateMutability": "nonpayable",
      "type": "function"
    },
    {
      "inputs": [
        {
          "internalType": "bytes32",
          "name": "idOpname",
          "type": "bytes32"
        },
        {
          "internalType": "bytes32",
          "name": "dataHash",
          "type": "bytes32"
        }
      ],
      "name": "catatStockOpname",
      "outputs": [],
      "stateMutability": "nonpayable",
      "type": "function"
    },
    {
      "inputs": [],
      "name": "djbc",
      "outputs": [
        {
          "internalType": "address",
          "name": "",
          "type": "address"
        }
      ],
      "stateMutability": "view",
      "type": "function"
    },
    {
      "inputs": [],
      "name": "getInfoKontrak",
      "outputs": [
        {
          "internalType": "address",
          "name": "_djbc",
          "type": "address"
        },
        {
          "internalType": "address",
          "name": "_adminBC",
          "type": "address"
        },
        {
          "internalType": "address",
          "name": "_operator",
          "type": "address"
        },
        {
          "internalType": "bool",
          "name": "_izinAktif",
          "type": "bool"
        },
        {
          "internalType": "uint256",
          "name": "_tanggalDeploy",
          "type": "uint256"
        }
      ],
      "stateMutability": "view",
      "type": "function"
    },
    {
      "inputs": [
        {
          "internalType": "bytes32",
          "name": "kodeBarang",
          "type": "bytes32"
        }
      ],
      "name": "getSaldoBarang",
      "outputs": [
        {
          "internalType": "uint256",
          "name": "",
          "type": "uint256"
        }
      ],
      "stateMutability": "view",
      "type": "function"
    },
    {
      "inputs": [
        {
          "internalType": "bytes32",
          "name": "kodeProduk",
          "type": "bytes32"
        }
      ],
      "name": "getSaldoProdukJadi",
      "outputs": [
        {
          "internalType": "uint256",
          "name": "",
          "type": "uint256"
        }
      ],
      "stateMutability": "view",
      "type": "function"
    },
    {
      "inputs": [
        {
          "internalType": "bytes32",
          "name": "",
          "type": "bytes32"
        }
      ],
      "name": "hashBOM",
      "outputs": [
        {
          "internalType": "bytes32",
          "name": "",
          "type": "bytes32"
        }
      ],
      "stateMutability": "view",
      "type": "function"
    },
    {
      "inputs": [
        {
          "internalType": "bytes32",
          "name": "",
          "type": "bytes32"
        }
      ],
      "name": "hashBarangKeluar",
      "outputs": [
        {
          "internalType": "bytes32",
          "name": "",
          "type": "bytes32"
        }
      ],
      "stateMutability": "view",
      "type": "function"
    },
    {
      "inputs": [
        {
          "internalType": "bytes32",
          "name": "",
          "type": "bytes32"
        }
      ],
      "name": "hashBarangMasuk",
      "outputs": [
        {
          "internalType": "bytes32",
          "name": "",
          "type": "bytes32"
        }
      ],
      "stateMutability": "view",
      "type": "function"
    },
    {
      "inputs": [
        {
          "internalType": "bytes32",
          "name": "",
          "type": "bytes32"
        }
      ],
      "name": "hashHasilProduksi",
      "outputs": [
        {
          "internalType": "bytes32",
          "name": "",
          "type": "bytes32"
        }
      ],
      "stateMutability": "view",
      "type": "function"
    },
    {
      "inputs": [
        {
          "internalType": "bytes32",
          "name": "",
          "type": "bytes32"
        }
      ],
      "name": "hashPemusnahan",
      "outputs": [
        {
          "internalType": "bytes32",
          "name": "",
          "type": "bytes32"
        }
      ],
      "stateMutability": "view",
      "type": "function"
    },
    {
      "inputs": [
        {
          "internalType": "bytes32",
          "name": "",
          "type": "bytes32"
        }
      ],
      "name": "hashScrap",
      "outputs": [
        {
          "internalType": "bytes32",
          "name": "",
          "type": "bytes32"
        }
      ],
      "stateMutability": "view",
      "type": "function"
    },
    {
      "inputs": [
        {
          "internalType": "bytes32",
          "name": "",
          "type": "bytes32"
        }
      ],
      "name": "hashStockOpname",
      "outputs": [
        {
          "internalType": "bytes32",
          "name": "",
          "type": "bytes32"
        }
      ],
      "stateMutability": "view",
      "type": "function"
    },
    {
      "inputs": [
        {
          "internalType": "bytes32",
          "name": "",
          "type": "bytes32"
        }
      ],
      "name": "hashWIP",
      "outputs": [
        {
          "internalType": "bytes32",
          "name": "",
          "type": "bytes32"
        }
      ],
      "stateMutability": "view",
      "type": "function"
    },
    {
      "inputs": [
        {
          "internalType": "bytes32",
          "name": "h",
          "type": "bytes32"
        }
      ],
      "name": "isHashUsed",
      "outputs": [
        {
          "internalType": "bool",
          "name": "",
          "type": "bool"
        }
      ],
      "stateMutability": "view",
      "type": "function"
    },
    {
      "inputs": [],
      "name": "izinAktif",
      "outputs": [
        {
          "internalType": "bool",
          "name": "",
          "type": "bool"
        }
      ],
      "stateMutability": "view",
      "type": "function"
    },
    {
      "inputs": [],
      "name": "operator",
      "outputs": [
        {
          "internalType": "address",
          "name": "",
          "type": "address"
        }
      ],
      "stateMutability": "view",
      "type": "function"
    },
    {
      "inputs": [
        {
          "internalType": "bytes32",
          "name": "",
          "type": "bytes32"
        }
      ],
      "name": "saldoBarang",
      "outputs": [
        {
          "internalType": "uint256",
          "name": "",
          "type": "uint256"
        }
      ],
      "stateMutability": "view",
      "type": "function"
    },
    {
      "inputs": [
        {
          "internalType": "bytes32",
          "name": "",
          "type": "bytes32"
        }
      ],
      "name": "saldoProdukJadi",
      "outputs": [
        {
          "internalType": "uint256",
          "name": "",
          "type": "uint256"
        }
      ],
      "stateMutability": "view",
      "type": "function"
    },
    {
      "inputs": [],
      "name": "tanggalDeploy",
      "outputs": [
        {
          "internalType": "uint256",
          "name": "",
          "type": "uint256"
        }
      ],
      "stateMutability": "view",
      "type": "function"
    },
    {
      "inputs": [
        {
          "internalType": "address",
          "name": "adminBCBaru",
          "type": "address"
        }
      ],
      "name": "updateAdminBC",
      "outputs": [],
      "stateMutability": "nonpayable",
      "type": "function"
    },
    {
      "inputs": [
        {
          "internalType": "address",
          "name": "auditorBaru",
          "type": "address"
        }
      ],
      "name": "updateAuditorDJP",
      "outputs": [],
      "stateMutability": "nonpayable",
      "type": "function"
    },
    {
      "inputs": [
        {
          "internalType": "address",
          "name": "operatorBaru",
          "type": "address"
        }
      ],
      "name": "updateOperator",
      "outputs": [],
      "stateMutability": "nonpayable",
      "type": "function"
    },
    {
      "inputs": [
        {
          "internalType": "bool",
          "name": "statusAktif",
          "type": "bool"
        }
      ],
      "name": "updateStatusIzin",
      "outputs": [],
      "stateMutability": "nonpayable",
      "type": "function"
    },
    {
      "inputs": [
        {
          "internalType": "bytes32",
          "name": "kodeFormula",
          "type": "bytes32"
        },
        {
          "internalType": "bytes32",
          "name": "dataHash",
          "type": "bytes32"
        }
      ],
      "name": "validasiBOM",
      "outputs": [],
      "stateMutability": "nonpayable",
      "type": "function"
    },
    {
      "inputs": [
        {
          "internalType": "bytes32",
          "name": "idDokumen",
          "type": "bytes32"
        },
        {
          "internalType": "bytes32",
          "name": "hashYangDiklaim",
          "type": "bytes32"
        }
      ],
      "name": "verifikasiHashBarangKeluar",
      "outputs": [
        {
          "internalType": "bool",
          "name": "",
          "type": "bool"
        }
      ],
      "stateMutability": "view",
      "type": "function"
    },
    {
      "inputs": [
        {
          "internalType": "bytes32",
          "name": "idDokumen",
          "type": "bytes32"
        },
        {
          "internalType": "bytes32",
          "name": "hashYangDiklaim",
          "type": "bytes32"
        }
      ],
      "name": "verifikasiHashBarangMasuk",
      "outputs": [
        {
          "internalType": "bool",
          "name": "",
          "type": "bool"
        }
      ],
      "stateMutability": "view",
      "type": "function"
    },
    {
      "inputs": [
        {
          "internalType": "bytes32",
          "name": "idBeritaAcara",
          "type": "bytes32"
        },
        {
          "internalType": "bytes32",
          "name": "hashYangDiklaim",
          "type": "bytes32"
        }
      ],
      "name": "verifikasiHashPemusnahan",
      "outputs": [
        {
          "internalType": "bool",
          "name": "",
          "type": "bool"
        }
      ],
      "stateMutability": "view",
      "type": "function"
    },
    {
      "inputs": [
        {
          "internalType": "bytes32",
          "name": "idDokumenBC25",
          "type": "bytes32"
        },
        {
          "internalType": "bytes32",
          "name": "hashYangDiklaim",
          "type": "bytes32"
        }
      ],
      "name": "verifikasiHashScrap",
      "outputs": [
        {
          "internalType": "bool",
          "name": "",
          "type": "bool"
        }
      ],
      "stateMutability": "view",
      "type": "function"
    }
  ],
  "bytecode": "0x60806040523480156200001157600080fd5b5060405162001ffa38038062001ffa8339810160408190526200003491620001c4565b6001600160a01b038416620000905760405162461bcd60e51b815260206004820152601760248201527f416c616d617420444a424320746964616b2076616c696400000000000000000060448201526064015b60405180910390fd5b6001600160a01b038316620000e85760405162461bcd60e51b815260206004820152601b60248201527f416c616d61742041646d696e20424320746964616b2076616c69640000000000604482015260640162000087565b6001600160a01b038216620001405760405162461bcd60e51b815260206004820152601b60248201527f416c616d6174204f70657261746f7220746964616b2076616c69640000000000604482015260640162000087565b600080546001600160a01b039586166001600160a01b0319918216179091556001805494861694821694909417909355600280549285169290931691909117909155600380546001600160a81b0319169190921617600160a01b1790554260045562000221565b80516001600160a01b0381168114620001bf57600080fd5b919050565b60008060008060808587031215620001db57600080fd5b620001e685620001a7565b9350620001f660208601620001a7565b92506200020660408601620001a7565b91506200021660608601620001a7565b905092959194509250565b611dc980620002316000396000f3fe608060405234801561001057600080fd5b50600436106102265760003560e01c80637d50b9ed11610130578063aa64063e116100b8578063d8cb6b2d1161007c578063d8cb6b2d146105db578063decac908146105ee578063f26140b114610601578063fc0544ae14610621578063fe3a9a671461064157600080fd5b8063aa64063e14610562578063ac7475ed14610582578063b310bb2b14610595578063b39436b1146105a8578063b86506a7146105bb57600080fd5b8063940a7ad4116100ff578063940a7ad4146104e7578063952c6af41461050957806396e8e57e1461051c578063a21be9c31461052f578063a349a8451461054f57600080fd5b80637d50b9ed14610480578063839f5da2146104a05780638a29d5d2146104c05780638cb08c5c146104d357600080fd5b806331c49d13116101b3578063570ca73511610182578063570ca7351461041c578063591e3dd81461042f5780635d160b4714610451578063762d26921461045a5780637d4daa5b1461046d57600080fd5b806331c49d131461039e5780633cb794e7146103b157806347fc67a8146103dc5780634b059ac0146103fc57600080fd5b80630fc8c02b116101fa5780630fc8c02b146103065780631cb5458c1461032657806320021d8b1461033957806320fce5661461035c57806322d5ad881461037e57600080fd5b8062ad77c41461022b578063081725631461024057806308459e6a146102b55780630e841198146102d8575b600080fd5b61023e610239366004611905565b610654565b005b6102756000546001546002546003546004546001600160a01b03948516959385169490921692600160a01b90910460ff169190565b604080516001600160a01b0396871681529486166020860152929094169183019190915215156060820152608081019190915260a0015b60405180910390f35b6102c86102c3366004611952565b610824565b60405190151581526020016102ac565b6102f86102e6366004611974565b60076020526000908152604090205481565b6040519081526020016102ac565b6102f8610314366004611974565b600a6020526000908152604090205481565b61023e61033436600461198d565b61083c565b6102c8610347366004611974565b6000908152600f602052604090205460ff1690565b6102c861036a366004611952565b6000918252600a6020526040909120541490565b6102f861038c366004611974565b600b6020526000908152604090205481565b61023e6103ac366004611952565b610a87565b6001546103c4906001600160a01b031681565b6040516001600160a01b0390911681526020016102ac565b6102f86103ea366004611974565b600c6020526000908152604090205481565b6102f861040a366004611974565b60066020526000908152604090205481565b6002546103c4906001600160a01b031681565b6102c861043d366004611952565b600091825260086020526040909120541490565b6102f860045481565b61023e6104683660046119bf565b610c13565b6003546103c4906001600160a01b031681565b6102f861048e366004611974565b60086020526000908152604090205481565b6102f86104ae366004611974565b60056020526000908152604090205481565b61023e6104ce3660046119f4565b610e50565b6003546102c890600160a01b900460ff1681565b6102c86104f5366004611952565b600091825260096020526040909120541490565b61023e610517366004611a70565b610ef2565b61023e61052a366004611b04565b61127a565b6102f861053d366004611974565b60009081526005602052604090205490565b61023e61055d366004611952565b611318565b6102f8610570366004611974565b600d6020526000908152604090205481565b61023e6105903660046119f4565b61141b565b61023e6105a336600461198d565b6114bd565b6000546103c4906001600160a01b031681565b6102f86105c9366004611974565b600e6020526000908152604090205481565b61023e6105e9366004611952565b61170b565b61023e6105fc3660046119f4565b611816565b6102f861060f366004611974565b60009081526006602052604090205490565b6102f861062f366004611974565b60096020526000908152604090205481565b61023e61064f366004611b26565b611862565b6002546001600160a01b031633146106875760405162461bcd60e51b815260040161067e90611b52565b60405180910390fd5b600354600160a01b900460ff166106b05760405162461bcd60e51b815260040161067e90611b87565b6000818152600f6020526040902054819060ff16156106e15760405162461bcd60e51b815260040161067e90611bd0565b6000831161072d5760405162461bcd60e51b815260206004820152601960248201527804a756d6c6168206861727573206c656269682064617269203603c1b604482015260640161067e565b856107735760405162461bcd60e51b8152602060048201526016602482015275125108191bdadd5b595b881d1a59185ac81d985b1a5960521b604482015260640161067e565b846107905760405162461bcd60e51b815260040161067e90611c19565b60008681526007602090815260408083208590558783526005909152812080548592906107be908490611c66565b9250508190555084867f0f2660e185456153d179965cf90bf73e5531f0bbf3d7858801c203b9feb8563a868686426040516107fc9493929190611c8f565b60405180910390a36000908152600f60205260409020805460ff191660011790555050505050565b60008281526007602052604090205481145b92915050565b6002546001600160a01b031633146108665760405162461bcd60e51b815260040161067e90611b52565b600354600160a01b900460ff1661088f5760405162461bcd60e51b815260040161067e90611b87565b6000818152600f6020526040902054819060ff16156108c05760405162461bcd60e51b815260040161067e90611bd0565b600083116109105760405162461bcd60e51b815260206004820152601f60248201527f4a756d6c6168207363726170206861727573206c656269682064617269203000604482015260640161067e565b8461095d5760405162461bcd60e51b815260206004820152601d60248201527f494420646f6b756d656e20424320322e3520746964616b2076616c6964000000604482015260640161067e565b8361097a5760405162461bcd60e51b815260040161067e90611c19565b6000848152600560205260409020548311156109ed5760405162461bcd60e51b815260206004820152602c60248201527f53616c646f20626168616e2062616b7520746964616b2063756b757020756e7460448201526b756b20736372617020696e6960a01b606482015260840161067e565b6000858152600960209081526040808320859055868352600590915281208054859290610a1b908490611cbf565b909155505060408051848152602081018490524291810191909152849086907f20198ddef3f9edc34505f37d18418ed6e6e867460f15ef7bf20c564b7724670d906060015b60405180910390a36000908152600f60205260409020805460ff1916600117905550505050565b6002546001600160a01b03163314610ab15760405162461bcd60e51b815260040161067e90611b52565b600354600160a01b900460ff16610ada5760405162461bcd60e51b815260040161067e90611b87565b6000818152600f6020526040902054819060ff1615610b0b5760405162461bcd60e51b815260040161067e90611bd0565b82610b4f5760405162461bcd60e51b815260206004820152601460248201527312510818985d18da081d1a59185ac81d985b1a5960621b604482015260640161067e565b6000838152600b602052604090205415610ba05760405162461bcd60e51b815260206004820152601260248201527142617463682049442073756461682061646160701b604482015260640161067e565b6000838152600b6020526040908190208390555183907ff9cd7615cb3636a6852a693227753e27997939498a38b4b2c8eecf5db9d637d990610bee9085904290918252602082015260400190565b60405180910390a26000908152600f60205260409020805460ff191660011790555050565b6002546001600160a01b03163314610c3d5760405162461bcd60e51b815260040161067e90611b52565b600354600160a01b900460ff16610c665760405162461bcd60e51b815260040161067e90611b87565b6000818152600f6020526040902054819060ff1615610c975760405162461bcd60e51b815260040161067e90611bd0565b60008311610ce35760405162461bcd60e51b815260206004820152601960248201527804a756d6c6168206861727573206c656269682064617269203603c1b604482015260640161067e565b600085815260066020526040902054831115610d5d5760405162461bcd60e51b815260206004820152603360248201527f53616c646f2070726f64756b206a61646920746964616b2063756b757020756e60448201527274756b2070656e67656c756172616e20696e6960681b606482015260840161067e565b6001846002811115610d7157610d71611c79565b03610de45760405162461bcd60e51b815260206004820152603f60248201527f536372617020686172757320646963617461742076696120636174617453637260448201527f617028292c2062756b616e206361746174426172616e674b656c756172282900606482015260840161067e565b6000868152600860209081526040808320859055878352600690915281208054859290610e12908490611cbf565b9250508190555084867f41efd59a20588008430bb58cdf90885ea14fbbc5ce94ac8767fffa323d612322868686426040516107fc9493929190611cd2565b6000546001600160a01b03163314610e7a5760405162461bcd60e51b815260040161067e90611ce6565b6001600160a01b038116610ed05760405162461bcd60e51b815260206004820152601b60248201527f416c616d61742041646d696e20424320746964616b2076616c69640000000000604482015260640161067e565b600180546001600160a01b0319166001600160a01b0392909216919091179055565b6002546001600160a01b03163314610f1c5760405162461bcd60e51b815260040161067e90611b52565b600354600160a01b900460ff16610f455760405162461bcd60e51b815260040161067e90611b87565b6000818152600f6020526040902054819060ff1615610f765760405162461bcd60e51b815260040161067e90611bd0565b60008711610fc65760405162461bcd60e51b815260206004820181905260248201527f4a756d6c6168206f7574707574206861727573206c6562696820646172692030604482015260640161067e565b6000898152600b60205260409020546110215760405162461bcd60e51b815260206004820152601960248201527f42617463682057495020746964616b20646974656d756b616e00000000000000604482015260640161067e565b84831461107e5760405162461bcd60e51b815260206004820152602560248201527f50616e6a616e6720617272617920626168616e2062616b7520746964616b2073604482015264657375616960d81b606482015260840161067e565b846110d55760405162461bcd60e51b815260206004820152602160248201527f486172757320616461206d696e696d616c207361747520626168616e2062616b6044820152607560f81b606482015260840161067e565b60005b858110156111de578484828181106110f2576110f2611d1d565b905060200201356005600089898581811061110f5761110f611d1d565b9050602002013581526020019081526020016000205410156111735760405162461bcd60e51b815260206004820181905260248201527f53616c646f20626168616e2062616b7520746964616b206d656e63756b757069604482015260640161067e565b84848281811061118557611185611d1d565b90506020020135600560008989858181106111a2576111a2611d1d565b90506020020135815260200190815260200160002060008282546111c69190611cbf565b909155508190506111d681611d33565b9150506110d8565b50600088815260066020526040812080548992906111fd908490611c66565b90915550506000898152600c602090815260409182902084905581518981529081018490524281830152905189918b917fcf838fc7ee97cf2e72a0eadab668eb3d0d66d7931970e5cb5c3ae2881ebcdd919181900360600190a36000908152600f60205260409020805460ff191660011790555050505050505050565b6001546001600160a01b031633148061129d57506000546001600160a01b031633145b6112b95760405162461bcd60e51b815260040161067e90611d4c565b6003805460ff60a01b1916600160a01b831515908102919091179091556040805191825233602083015242908201527f620f2fe5b75315b4461296f418b63d5ea3dee0cfb72da548c2a2b96d77e3b1559060600160405180910390a150565b6001546001600160a01b031633148061133b57506000546001600160a01b031633145b6113575760405162461bcd60e51b815260040161067e90611d4c565b6000818152600f6020526040902054819060ff16156113885760405162461bcd60e51b815260040161067e90611bd0565b826113cd5760405162461bcd60e51b81526020600482015260156024820152741251081bdc1b985b59481d1a59185ac81d985b1a59605a1b604482015260640161067e565b6000838152600d6020526040908190208390555183907f9e2ffd7eb1c132abb8d5f7ca41be6b641152d051a25186394fcb6c72a82a0fb990610bee9085904290918252602082015260400190565b6000546001600160a01b031633146114455760405162461bcd60e51b815260040161067e90611ce6565b6001600160a01b03811661149b5760405162461bcd60e51b815260206004820152601b60248201527f416c616d6174206f70657261746f7220746964616b2076616c69640000000000604482015260640161067e565b600280546001600160a01b0319166001600160a01b0392909216919091179055565b6001546001600160a01b03163314806114e057506000546001600160a01b031633145b6114fc5760405162461bcd60e51b815260040161067e90611d4c565b600354600160a01b900460ff166115255760405162461bcd60e51b815260040161067e90611b87565b6000818152600f6020526040902054819060ff16156115565760405162461bcd60e51b815260040161067e90611bd0565b600083116115b25760405162461bcd60e51b8152602060048201526024808201527f4a756d6c61682070656d75736e6168616e206861727573206c656269682064616044820152630726920360e41b606482015260840161067e565b846115ff5760405162461bcd60e51b815260206004820152601b60248201527f49442042657269746120416361726120746964616b2076616c69640000000000604482015260640161067e565b8361161c5760405162461bcd60e51b815260040161067e90611c19565b6000848152600560205260409020548311156116945760405162461bcd60e51b815260206004820152603160248201527f53616c646f20626168616e2062616b7520746964616b2063756b757020756e74604482015270756b2070656d75736e6168616e20696e6960781b606482015260840161067e565b6000858152600a602090815260408083208590558683526005909152812080548592906116c2908490611cbf565b909155505060408051848152602081018490524291810191909152849086907fcf19fc6fd34f69ba1e245c6c96687e62544bb02b59133dc84a37555e7356167d90606001610a60565b6001546001600160a01b031633148061172e57506000546001600160a01b031633145b61174a5760405162461bcd60e51b815260040161067e90611d4c565b6000818152600f6020526040902054819060ff161561177b5760405162461bcd60e51b815260040161067e90611bd0565b826117c85760405162461bcd60e51b815260206004820152601860248201527f4b6f646520666f726d756c6120746964616b2076616c69640000000000000000604482015260640161067e565b6000838152600e6020526040908190208390555183907f1604a1e17e79e7de226f2b4ce7df3bc08176f7b6df27e0cd3f4f37967ba7a58590610bee9085904290918252602082015260400190565b6000546001600160a01b031633146118405760405162461bcd60e51b815260040161067e90611ce6565b600380546001600160a01b0319166001600160a01b0392909216919091179055565b6001546001600160a01b031633148061188557506000546001600160a01b031633145b6118a15760405162461bcd60e51b815260040161067e90611d4c565b600083815260056020908152604091829020805490859055825181815291820185905291810183905242606082015284907f203cbf77cb7bf62c63dea6576e65b8484d1b600c574b69690480c6bf46dc36429060800160405180910390a250505050565b600080600080600060a0868803121561191d57600080fd5b853594506020860135935060408601356002811061193a57600080fd5b94979396509394606081013594506080013592915050565b6000806040838503121561196557600080fd5b50508035926020909101359150565b60006020828403121561198657600080fd5b5035919050565b600080600080608085870312156119a357600080fd5b5050823594602084013594506040840135936060013592509050565b600080600080600060a086880312156119d757600080fd5b853594506020860135935060408601356003811061193a57600080fd5b600060208284031215611a0657600080fd5b81356001600160a01b0381168114611a1d57600080fd5b9392505050565b60008083601f840112611a3657600080fd5b50813567ffffffffffffffff811115611a4e57600080fd5b6020830191508360208260051b8501011115611a6957600080fd5b9250929050565b60008060008060008060008060c0898b031215611a8c57600080fd5b883597506020890135965060408901359550606089013567ffffffffffffffff80821115611ab957600080fd5b611ac58c838d01611a24565b909750955060808b0135915080821115611ade57600080fd5b50611aeb8b828c01611a24565b999c989b50969995989497949560a00135949350505050565b600060208284031215611b1657600080fd5b81358015158114611a1d57600080fd5b600080600060608486031215611b3b57600080fd5b505081359360208301359350604090920135919050565b6020808252818101527f416b736573206469746f6c616b3a2062756b616e206f70657261746f72204b42604082015260600190565b60208082526029908201527f4f706572617369206469746f6c616b3a20697a696e204b4220736564616e67206040820152683234b132b5bab5b0b760b91b606082015260800190565b60208082526029908201527f48617368207375646168207065726e616820646967756e616b616e2028616e74604082015268692d7265706c61792960b81b606082015260800190565b60208082526017908201527f4b6f646520626172616e6720746964616b2076616c6964000000000000000000604082015260600190565b634e487b7160e01b600052601160045260246000fd5b8082018082111561083657610836611c50565b634e487b7160e01b600052602160045260246000fd5b6080810160028610611ca357611ca3611c79565b9481526020810193909352604083019190915260609091015290565b8181038181111561083657610836611c50565b6080810160038610611ca357611ca3611c79565b60208082526019908201527f416b736573206469746f6c616b3a2062756b616e20444a424300000000000000604082015260600190565b634e487b7160e01b600052603260045260246000fd5b600060018201611d4557611d45611c50565b5060010190565b60208082526027908201527f416b736573206469746f6c616b3a2062756b616e2041646d696e204243206174604082015266617520444a424360c81b60608201526080019056fea264697066735822122046ec7cdb4716851a8dca3099a02a06a9a87c4965f0de4baab1589fbdb0d96aaa64736f6c63430008140033",
  "linkReferences": {},
  "deployedLinkReferences": {}
}