{
  "_format": "hh-sol-artifact-1",
  "contractName": "MasterRegistry_v3",
  "sourceName": "contracts/MasterRegistry_v3.sol",
  "abi": [
    {
      "inputs": [],
      "stateMutability": "nonpayable",
      "type": "constructor"
    },
    {
      "inputs": [
        {
          "internalType": "address",
          "name": "owner",
          "type": "address"
        }
      ],
      "name": "OwnableInvalidOwner",
      "type": "error"
    },
    {
      "inputs": [
        {
          "internalType": "address",
          "name": "account",
          "type": "address"
        }
      ],
      "name": "OwnableUnauthorizedAccount",
      "type": "error"
    },
    {
      "anonymous": false,
      "inputs": [
        {
          "indexed": true,
          "internalType": "string",
          "name": "idKB",
          "type": "string"
        },
        {
          "indexed": false,
          "internalType": "string",
          "name": "namaPerusahaan",
          "type": "string"
        },
        {
          "indexed": false,
          "internalType": "address",
          "name": "alamatKontrak",
          "type": "address"
        },
        {
          "indexed": false,
          "internalType": "address",
          "name": "adminBC",
          "type": "address"
        },
        {
          "indexed": false,
          "internalType": "address",
          "name": "operator",
          "type": "address"
        },
        {
          "indexed": false,
          "internalType": "uint256",
          "name": "timestamp",
          "type": "uint256"
        }
      ],
      "name": "KBDidaftarkan",
      "type": "event"
    },
    {
      "anonymous": false,
      "inputs": [
        {
          "indexed": true,
          "internalType": "address",
          "name": "previousOwner",
          "type": "address"
        },
        {
          "indexed": true,
          "internalType": "address",
          "name": "newOwner",
          "type": "address"
        }
      ],
      "name": "OwnershipTransferred",
      "type": "event"
    },
    {
      "anonymous": false,
      "inputs": [
        {
          "indexed": true,
          "internalType": "address",
          "name": "wallet",
          "type": "address"
        },
        {
          "indexed": false,
          "internalType": "uint256",
          "name": "timestamp",
          "type": "uint256"
        }
      ],
      "name": "PejabatBCDihapus",
      "type": "event"
    },
    {
      "anonymous": false,
      "inputs": [
        {
          "indexed": true,
          "internalType": "address",
          "name": "wallet",
          "type": "address"
        },
        {
          "indexed": false,
          "internalType": "uint256",
          "name": "timestamp",
          "type": "uint256"
        }
      ],
      "name": "PejabatBCDitambahkan",
      "type": "event"
    },
    {
      "inputs": [
        {
          "internalType": "string",
          "name": "idKB",
          "type": "string"
        }
      ],
      "name": "getAlamatKontrak",
      "outputs": [
        {
          "internalType": "address",
          "name": "",
          "type": "address"
        }
      ],
      "stateMutability": "view",
      "type": "function"
    },
    {
      "inputs": [],
      "name": "getDaftarSemuaKB",
      "outputs": [
        {
          "internalType": "string[]",
          "name": "",
          "type": "string[]"
        }
      ],
      "stateMutability": "view",
      "type": "function"
    },
    {
      "inputs": [
        {
          "internalType": "string",
          "name": "idKB",
          "type": "string"
        }
      ],
      "name": "getInfoKB",
      "outputs": [
        {
          "components": [
            {
              "internalType": "string",
              "name": "namaPerusahaan",
              "type": "string"
            },
            {
              "internalType": "string",
              "name": "nomorIzin",
              "type": "string"
            },
            {
              "internalType": "uint256",
              "name": "tanggalIzin",
              "type": "uint256"
            },
            {
              "internalType": "address",
              "name": "alamatKontrak",
              "type": "address"
            },
            {
              "internalType": "bool",
              "name": "terdaftar",
              "type": "bool"
            }
          ],
          "internalType": "struct MasterRegistry_v3.InfoKB",
          "name": "",
          "type": "tuple"
        }
      ],
      "stateMutability": "view",
      "type": "function"
    },
    {
      "inputs": [
        {
          "internalType": "address",
          "name": "wallet",
          "type": "address"
        }
      ],
      "name": "hapusPejabatBC",
      "outputs": [],
      "stateMutability": "nonpayable",
      "type": "function"
    },
    {
      "inputs": [
        {
          "internalType": "address",
          "name": "wallet",
          "type": "address"
        }
      ],
      "name": "isPejabatBC",
      "outputs": [
        {
          "internalType": "bool",
          "name": "",
          "type": "bool"
        }
      ],
      "stateMutability": "view",
      "type": "function"
    },
    {
      "inputs": [],
      "name": "owner",
      "outputs": [
        {
          "internalType": "address",
          "name": "",
          "type": "address"
        }
      ],
      "stateMutability": "view",
      "type": "function"
    },
    {
      "inputs": [
        {
          "internalType": "string",
          "name": "idKB",
          "type": "string"
        },
        {
          "internalType": "string",
          "name": "namaPerusahaan",
          "type": "string"
        },
        {
          "internalType": "string",
          "name": "nomorIzin",
          "type": "string"
        },
        {
          "internalType": "uint256",
          "name": "tanggalIzin",
          "type": "uint256"
        },
        {
          "internalType": "address",
          "name": "adminBC",
          "type": "address"
        },
        {
          "internalType": "address",
          "name": "operator",
          "type": "address"
        },
        {
          "internalType": "address",
          "name": "auditorDJP",
          "type": "address"
        }
      ],
      "name": "registerKawasanBerikat",
      "outputs": [],
      "stateMutability": "nonpayable",
      "type": "function"
    },
    {
      "inputs": [],
      "name": "renounceOwnership",
      "outputs": [],
      "stateMutability": "nonpayable",
      "type": "function"
    },
    {
      "inputs": [
        {
          "internalType": "address",
          "name": "wallet",
          "type": "address"
        }
      ],
      "name": "tambahPejabatBC",
      "outputs": [],
      "stateMutability": "nonpayable",
      "type": "function"
    },
    {
      "inputs": [
        {
          "internalType": "address",
          "name": "newOwner",
          "type": "address"
        }
      ],
      "name": "transferOwnership",
      "outputs": [],
      "stateMutability": "nonpayable",
      "type": "function"
    }
  ],
  "bytecode": "0x608060405234801561001057600080fd5b50338061003757604051631e4fbdf760e01b81526000600482015260240160405180910390fd5b61004081610046565b50610096565b600080546001600160a01b038381166001600160a01b0319831681178455604051919092169283917f8be0079c531659141344cd1fd0a4f28419497f9722a3daafe3b4186f6b6457e09190a35050565b613051806100a56000396000f3fe60806040523480156200001157600080fd5b5060043610620000ab5760003560e01c8063715018a6116200006e578063715018a614620001635780638da5cb5b146200016d578063a58e08ea1462000193578063f2fde38b14620001aa578063f596c59514620001c157600080fd5b8063179665ed14620000b057806319d4c4d614620000c957806356227285146200010d578063581b1cfb1462000124578063673f78fc146200013d575b600080fd5b620000c7620000c136600462000c04565b620001d8565b005b620000f8620000da36600462000cd8565b6001600160a01b031660009081526003602052604090205460ff1690565b60405190151581526020015b60405180910390f35b620000c76200011e36600462000cd8565b6200054f565b6200012e62000607565b60405162000104919062000d51565b620001546200014e36600462000db7565b620006ea565b60405162000104919062000df8565b620000c76200093f565b6000546001600160a01b03165b6040516001600160a01b03909116815260200162000104565b6200017a620001a436600462000db7565b62000957565b620000c7620001bb36600462000cd8565b62000a0e565b620000c7620001d236600462000cd8565b62000a52565b3360009081526003602052604090205460ff16806200020157506000546001600160a01b031633145b620002535760405162461bcd60e51b815260206004820152601f60248201527f416b736573206469746f6c616b3a2062756b616e2070656a616261742042430060448201526064015b60405180910390fd5b8660018160405162000266919062000e6a565b9081526040519081900360200190206003015460ff600160a01b9091041615620002d35760405162461bcd60e51b815260206004820181905260248201527f4b422064656e67616e20494420696e692073756461682074657264616674617260448201526064016200024a565b6001600160a01b0384166200032b5760405162461bcd60e51b815260206004820152601b60248201527f416c616d61742041646d696e20424320746964616b2076616c6964000000000060448201526064016200024a565b6001600160a01b038316620003835760405162461bcd60e51b815260206004820152601b60248201527f416c616d6174204f70657261746f7220746964616b2076616c6964000000000060448201526064016200024a565b600080546001600160a01b0316858585604051620003a19062000b2e565b6001600160a01b039485168152928416602084015290831660408301529091166060820152608001604051809103906000f080158015620003e6573d6000803e3d6000fd5b5090506040518060a00160405280898152602001888152602001878152602001826001600160a01b031681526020016001151581525060018a6040516200042e919062000e6a565b908152604051908190036020019020815181906200044d908262000f11565b506020820151600182019062000464908262000f11565b5060408201516002808301919091556060830151600390920180546080909401511515600160a01b026001600160a81b03199094166001600160a01b039093169290921792909217905580546001810182556000919091527f405787fa12a823e0f2b7631cc41b3ba8828b3321ca811111fa75cd3aa3bb5ace01620004ea8a8262000f11565b5088604051620004fb919062000e6a565b60405180910390207fd6c389e546232b4e8d2683072f3334aac286ca1682f39eb3404529b2a69fd51489838888426040516200053c95949392919062000fde565b60405180910390a2505050505050505050565b6200055962000aaf565b6001600160a01b038116620005a65760405162461bcd60e51b8152602060048201526012602482015271105b185b585d081d1a59185ac81d985b1a5960721b60448201526064016200024a565b6001600160a01b03811660008181526003602052604090819020805460ff19166001179055517f5bdfefe98e3a0d6f20bde6c0f4786c7fb5c90d39c2049ccf2afa6fe835aa53e490620005fc9042815260200190565b60405180910390a250565b60606002805480602002602001604051908101604052809291908181526020016000905b82821015620006e15783829060005260206000200180546200064d9062000e88565b80601f01602080910402602001604051908101604052809291908181526020018280546200067b9062000e88565b8015620006cc5780601f10620006a057610100808354040283529160200191620006cc565b820191906000526020600020905b815481529060010190602001808311620006ae57829003601f168201915b5050505050815260200190600101906200062b565b50505050905090565b620007286040518060a0016040528060608152602001606081526020016000815260200160006001600160a01b031681526020016000151581525090565b816001816040516200073b919062000e6a565b9081526040519081900360200190206003015460ff600160a01b90910416620007a75760405162461bcd60e51b815260206004820181905260248201527f4b422064656e67616e20494420696e6920746964616b20646974656d756b616e60448201526064016200024a565b600183604051620007b9919062000e6a565b90815260200160405180910390206040518060a0016040529081600082018054620007e49062000e88565b80601f0160208091040260200160405190810160405280929190818152602001828054620008129062000e88565b8015620008635780601f10620008375761010080835404028352916020019162000863565b820191906000526020600020905b8154815290600101906020018083116200084557829003601f168201915b505050505081526020016001820180546200087e9062000e88565b80601f0160208091040260200160405190810160405280929190818152602001828054620008ac9062000e88565b8015620008fd5780601f10620008d157610100808354040283529160200191620008fd565b820191906000526020600020905b815481529060010190602001808311620008df57829003601f168201915b5050509183525050600282015460208201526003909101546001600160a01b0381166040830152600160a01b900460ff16151560609091015291505b50919050565b6200094962000aaf565b62000955600062000ade565b565b6000816001816040516200096c919062000e6a565b9081526040519081900360200190206003015460ff600160a01b90910416620009d85760405162461bcd60e51b815260206004820181905260248201527f4b422064656e67616e20494420696e6920746964616b20646974656d756b616e60448201526064016200024a565b600183604051620009ea919062000e6a565b908152604051908190036020019020600301546001600160a01b0316915050919050565b62000a1862000aaf565b6001600160a01b03811662000a4457604051631e4fbdf760e01b8152600060048201526024016200024a565b62000a4f8162000ade565b50565b62000a5c62000aaf565b6001600160a01b03811660008181526003602052604090819020805460ff19169055517fba0d686eff014b744d47a399973bf7d9472d3432fcfa672f1cc2d71ab0f4fe8890620005fc9042815260200190565b6000546001600160a01b03163314620009555760405163118cdaa760e01b81523360048201526024016200024a565b600080546001600160a01b038381166001600160a01b0319831681178455604051919092169283917f8be0079c531659141344cd1fd0a4f28419497f9722a3daafe3b4186f6b6457e09190a35050565b611ffa806200102283390190565b634e487b7160e01b600052604160045260246000fd5b600082601f83011262000b6457600080fd5b813567ffffffffffffffff8082111562000b825762000b8262000b3c565b604051601f8301601f19908116603f0116810190828211818310171562000bad5762000bad62000b3c565b8160405283815286602085880101111562000bc757600080fd5b836020870160208301376000602085830101528094505050505092915050565b80356001600160a01b038116811462000bff57600080fd5b919050565b600080600080600080600060e0888a03121562000c2057600080fd5b873567ffffffffffffffff8082111562000c3957600080fd5b62000c478b838c0162000b52565b985060208a013591508082111562000c5e57600080fd5b62000c6c8b838c0162000b52565b975060408a013591508082111562000c8357600080fd5b5062000c928a828b0162000b52565b9550506060880135935062000caa6080890162000be7565b925062000cba60a0890162000be7565b915062000cca60c0890162000be7565b905092959891949750929550565b60006020828403121562000ceb57600080fd5b62000cf68262000be7565b9392505050565b60005b8381101562000d1a57818101518382015260200162000d00565b50506000910152565b6000815180845262000d3d81602086016020860162000cfd565b601f01601f19169290920160200192915050565b6000602080830181845280855180835260408601915060408160051b870101925083870160005b8281101562000daa57603f1988860301845262000d9785835162000d23565b9450928501929085019060010162000d78565b5092979650505050505050565b60006020828403121562000dca57600080fd5b813567ffffffffffffffff81111562000de257600080fd5b62000df08482850162000b52565b949350505050565b602081526000825160a0602084015262000e1660c084018262000d23565b90506020840151601f1984830301604085015262000e35828262000d23565b9150506040840151606084015260018060a01b0360608501511660808401526080840151151560a08401528091505092915050565b6000825162000e7e81846020870162000cfd565b9190910192915050565b600181811c9082168062000e9d57607f821691505b6020821081036200093957634e487b7160e01b600052602260045260246000fd5b601f82111562000f0c57600081815260208120601f850160051c8101602086101562000ee75750805b601f850160051c820191505b8181101562000f085782815560010162000ef3565b5050505b505050565b815167ffffffffffffffff81111562000f2e5762000f2e62000b3c565b62000f468162000f3f845462000e88565b8462000ebe565b602080601f83116001811462000f7e576000841562000f655750858301515b600019600386901b1c1916600185901b17855562000f08565b600085815260208120601f198616915b8281101562000faf5788860151825594840194600190910190840162000f8e565b508582101562000fce5787850151600019600388901b60f8161c191681555b5050505050600190811b01905550565b60a08152600062000ff360a083018862000d23565b6001600160a01b0396871660208401529486166040830152509190931660608201526080019190915291905056fe60806040523480156200001157600080fd5b5060405162001ffa38038062001ffa8339810160408190526200003491620001c4565b6001600160a01b038416620000905760405162461bcd60e51b815260206004820152601760248201527f416c616d617420444a424320746964616b2076616c696400000000000000000060448201526064015b60405180910390fd5b6001600160a01b038316620000e85760405162461bcd60e51b815260206004820152601b60248201527f416c616d61742041646d696e20424320746964616b2076616c69640000000000604482015260640162000087565b6001600160a01b038216620001405760405162461bcd60e51b815260206004820152601b60248201527f416c616d6174204f70657261746f7220746964616b2076616c69640000000000604482015260640162000087565b600080546001600160a01b039586166001600160a01b0319918216179091556001805494861694821694909417909355600280549285169290931691909117909155600380546001600160a81b0319169190921617600160a01b1790554260045562000221565b80516001600160a01b0381168114620001bf57600080fd5b919050565b60008060008060808587031215620001db57600080fd5b620001e685620001a7565b9350620001f660208601620001a7565b92506200020660408601620001a7565b91506200021660608601620001a7565b905092959194509250565b611dc980620002316000396000f3fe608060405234801561001057600080fd5b50600436106102265760003560e01c80637d50b9ed11610130578063aa64063e116100b8578063d8cb6b2d1161007c578063d8cb6b2d146105db578063decac908146105ee578063f26140b114610601578063fc0544ae14610621578063fe3a9a671461064157600080fd5b8063aa64063e14610562578063ac7475ed14610582578063b310bb2b14610595578063b39436b1146105a8578063b86506a7146105bb57600080fd5b8063940a7ad4116100ff578063940a7ad4146104e7578063952c6af41461050957806396e8e57e1461051c578063a21be9c31461052f578063a349a8451461054f57600080fd5b80637d50b9ed14610480578063839f5da2146104a05780638a29d5d2146104c05780638cb08c5c146104d357600080fd5b806331c49d13116101b3578063570ca73511610182578063570ca7351461041c578063591e3dd81461042f5780635d160b4714610451578063762d26921461045a5780637d4daa5b1461046d57600080fd5b806331c49d131461039e5780633cb794e7146103b157806347fc67a8146103dc5780634b059ac0146103fc57600080fd5b80630fc8c02b116101fa5780630fc8c02b146103065780631cb5458c1461032657806320021d8b1461033957806320fce5661461035c57806322d5ad881461037e57600080fd5b8062ad77c41461022b578063081725631461024057806308459e6a146102b55780630e841198146102d8575b600080fd5b61023e610239366004611905565b610654565b005b6102756000546001546002546003546004546001600160a01b03948516959385169490921692600160a01b90910460ff169190565b604080516001600160a01b0396871681529486166020860152929094169183019190915215156060820152608081019190915260a0015b60405180910390f35b6102c86102c3366004611952565b610824565b60405190151581526020016102ac565b6102f86102e6366004611974565b60076020526000908152604090205481565b6040519081526020016102ac565b6102f8610314366004611974565b600a6020526000908152604090205481565b61023e61033436600461198d565b61083c565b6102c8610347366004611974565b6000908152600f602052604090205460ff1690565b6102c861036a366004611952565b6000918252600a6020526040909120541490565b6102f861038c366004611974565b600b6020526000908152604090205481565b61023e6103ac366004611952565b610a87565b6001546103c4906001600160a01b031681565b6040516001600160a01b0390911681526020016102ac565b6102f86103ea366004611974565b600c6020526000908152604090205481565b6102f861040a366004611974565b60066020526000908152604090205481565b6002546103c4906001600160a01b031681565b6102c861043d366004611952565b600091825260086020526040909120541490565b6102f860045481565b61023e6104683660046119bf565b610c13565b6003546103c4906001600160a01b031681565b6102f861048e366004611974565b60086020526000908152604090205481565b6102f86104ae366004611974565b60056020526000908152604090205481565b61023e6104ce3660046119f4565b610e50565b6003546102c890600160a01b900460ff1681565b6102c86104f5366004611952565b600091825260096020526040909120541490565b61023e610517366004611a70565b610ef2565b61023e61052a366004611b04565b61127a565b6102f861053d366004611974565b60009081526005602052604090205490565b61023e61055d366004611952565b611318565b6102f8610570366004611974565b600d6020526000908152604090205481565b61023e6105903660046119f4565b61141b565b61023e6105a336600461198d565b6114bd565b6000546103c4906001600160a01b031681565b6102f86105c9366004611974565b600e6020526000908152604090205481565b61023e6105e9366004611952565b61170b565b61023e6105fc3660046119f4565b611816565b6102f861060f366004611974565b60009081526006602052604090205490565b6102f861062f366004611974565b60096020526000908152604090205481565b61023e61064f366004611b26565b611862565b6002546001600160a01b031633146106875760405162461bcd60e51b815260040161067e90611b52565b60405180910390fd5b600354600160a01b900460ff166106b05760405162461bcd60e51b815260040161067e90611b87565b6000818152600f6020526040902054819060ff16156106e15760405162461bcd60e51b815260040161067e90611bd0565b6000831161072d5760405162461bcd60e51b815260206004820152601960248201527804a756d6c6168206861727573206c656269682064617269203603c1b604482015260640161067e565b856107735760405162461bcd60e51b8152602060048201526016602482015275125108191bdadd5b595b881d1a59185ac81d985b1a5960521b604482015260640161067e565b846107905760405162461bcd60e51b815260040161067e90611c19565b60008681526007602090815260408083208590558783526005909152812080548592906107be908490611c66565b9250508190555084867f0f2660e185456153d179965cf90bf73e5531f0bbf3d7858801c203b9feb8563a868686426040516107fc9493929190611c8f565b60405180910390a36000908152600f60205260409020805460ff191660011790555050505050565b60008281526007602052604090205481145b92915050565b6002546001600160a01b031633146108665760405162461bcd60e51b815260040161067e90611b52565b600354600160a01b900460ff1661088f5760405162461bcd60e51b815260040161067e90611b87565b6000818152600f6020526040902054819060ff16156108c05760405162461bcd60e51b815260040161067e90611bd0565b600083116109105760405162461bcd60e51b815260206004820152601f60248201527f4a756d6c6168207363726170206861727573206c656269682064617269203000604482015260640161067e565b8461095d5760405162461bcd60e51b815260206004820152601d60248201527f494420646f6b756d656e20424320322e3520746964616b2076616c6964000000604482015260640161067e565b8361097a5760405162461bcd60e51b815260040161067e90611c19565b6000848152600560205260409020548311156109ed5760405162461bcd60e51b815260206004820152602c60248201527f53616c646f20626168616e2062616b7520746964616b2063756b757020756e7460448201526b756b20736372617020696e6960a01b606482015260840161067e565b6000858152600960209081526040808320859055868352600590915281208054859290610a1b908490611cbf565b909155505060408051848152602081018490524291810191909152849086907f20198ddef3f9edc34505f37d18418ed6e6e867460f15ef7bf20c564b7724670d906060015b60405180910390a36000908152600f60205260409020805460ff1916600117905550505050565b6002546001600160a01b03163314610ab15760405162461bcd60e51b815260040161067e90611b52565b600354600160a01b900460ff16610ada5760405162461bcd60e51b815260040161067e90611b87565b6000818152600f6020526040902054819060ff1615610b0b5760405162461bcd60e51b815260040161067e90611bd0565b82610b4f5760405162461bcd60e51b815260206004820152601460248201527312510818985d18da081d1a59185ac81d985b1a5960621b604482015260640161067e565b6000838152600b602052604090205415610ba05760405162461bcd60e51b815260206004820152601260248201527142617463682049442073756461682061646160701b604482015260640161067e565b6000838152600b6020526040908190208390555183907ff9cd7615cb3636a6852a693227753e27997939498a38b4b2c8eecf5db9d637d990610bee9085904290918252602082015260400190565b60405180910390a26000908152600f60205260409020805460ff191660011790555050565b6002546001600160a01b03163314610c3d5760405162461bcd60e51b815260040161067e90611b52565b600354600160a01b900460ff16610c665760405162461bcd60e51b815260040161067e90611b87565b6000818152600f6020526040902054819060ff1615610c975760405162461bcd60e51b815260040161067e90611bd0565b60008311610ce35760405162461bcd60e51b815260206004820152601960248201527804a756d6c6168206861727573206c656269682064617269203603c1b604482015260640161067e565b600085815260066020526040902054831115610d5d5760405162461bcd60e51b815260206004820152603360248201527f53616c646f2070726f64756b206a61646920746964616b2063756b757020756e60448201527274756b2070656e67656c756172616e20696e6960681b606482015260840161067e565b6001846002811115610d7157610d71611c79565b03610de45760405162461bcd60e51b815260206004820152603f60248201527f536372617020686172757320646963617461742076696120636174617453637260448201527f617028292c2062756b616e206361746174426172616e674b656c756172282900606482015260840161067e565b6000868152600860209081526040808320859055878352600690915281208054859290610e12908490611cbf565b9250508190555084867f41efd59a20588008430bb58cdf90885ea14fbbc5ce94ac8767fffa323d612322868686426040516107fc9493929190611cd2565b6000546001600160a01b03163314610e7a5760405162461bcd60e51b815260040161067e90611ce6565b6001600160a01b038116610ed05760405162461bcd60e51b815260206004820152601b60248201527f416c616d61742041646d696e20424320746964616b2076616c69640000000000604482015260640161067e565b600180546001600160a01b0319166001600160a01b0392909216919091179055565b6002546001600160a01b03163314610f1c5760405162461bcd60e51b815260040161067e90611b52565b600354600160a01b900460ff16610f455760405162461bcd60e51b815260040161067e90611b87565b6000818152600f6020526040902054819060ff1615610f765760405162461bcd60e51b815260040161067e90611bd0565b60008711610fc65760405162461bcd60e51b815260206004820181905260248201527f4a756d6c6168206f7574707574206861727573206c6562696820646172692030604482015260640161067e565b6000898152600b60205260409020546110215760405162461bcd60e51b815260206004820152601960248201527f42617463682057495020746964616b20646974656d756b616e00000000000000604482015260640161067e565b84831461107e5760405162461bcd60e51b815260206004820152602560248201527f50616e6a616e6720617272617920626168616e2062616b7520746964616b2073604482015264657375616960d81b606482015260840161067e565b846110d55760405162461bcd60e51b815260206004820152602160248201527f486172757320616461206d696e696d616c207361747520626168616e2062616b6044820152607560f81b606482015260840161067e565b60005b858110156111de578484828181106110f2576110f2611d1d565b905060200201356005600089898581811061110f5761110f611d1d565b9050602002013581526020019081526020016000205410156111735760405162461bcd60e51b815260206004820181905260248201527f53616c646f20626168616e2062616b7520746964616b206d656e63756b757069604482015260640161067e565b84848281811061118557611185611d1d565b90506020020135600560008989858181106111a2576111a2611d1d565b90506020020135815260200190815260200160002060008282546111c69190611cbf565b909155508190506111d681611d33565b9150506110d8565b50600088815260066020526040812080548992906111fd908490611c66565b90915550506000898152600c602090815260409182902084905581518981529081018490524281830152905189918b917fcf838fc7ee97cf2e72a0eadab668eb3d0d66d7931970e5cb5c3ae2881ebcdd919181900360600190a36000908152600f60205260409020805460ff191660011790555050505050505050565b6001546001600160a01b031633148061129d57506000546001600160a01b031633145b6112b95760405162461bcd60e51b815260040161067e90611d4c565b6003805460ff60a01b1916600160a01b831515908102919091179091556040805191825233602083015242908201527f620f2fe5b75315b4461296f418b63d5ea3dee0cfb72da548c2a2b96d77e3b1559060600160405180910390a150565b6001546001600160a01b031633148061133b57506000546001600160a01b031633145b6113575760405162461bcd60e51b815260040161067e90611d4c565b6000818152600f6020526040902054819060ff16156113885760405162461bcd60e51b815260040161067e90611bd0565b826113cd5760405162461bcd60e51b81526020600482015260156024820152741251081bdc1b985b59481d1a59185ac81d985b1a59605a1b604482015260640161067e565b6000838152600d6020526040908190208390555183907f9e2ffd7eb1c132abb8d5f7ca41be6b641152d051a25186394fcb6c72a82a0fb990610bee9085904290918252602082015260400190565b6000546001600160a01b031633146114455760405162461bcd60e51b815260040161067e90611ce6565b6001600160a01b03811661149b5760405162461bcd60e51b815260206004820152601b60248201527f416c616d6174206f70657261746f7220746964616b2076616c69640000000000604482015260640161067e565b600280546001600160a01b0319166001600160a01b0392909216919091179055565b6001546001600160a01b03163314806114e057506000546001600160a01b031633145b6114fc5760405162461bcd60e51b815260040161067e90611d4c565b600354600160a01b900460ff166115255760405162461bcd60e51b815260040161067e90611b87565b6000818152600f6020526040902054819060ff16156115565760405162461bcd60e51b815260040161067e90611bd0565b600083116115b25760405162461bcd60e51b8152602060048201526024808201527f4a756d6c61682070656d75736e6168616e206861727573206c656269682064616044820152630726920360e41b606482015260840161067e565b846115ff5760405162461bcd60e51b815260206004820152601b60248201527f49442042657269746120416361726120746964616b2076616c69640000000000604482015260640161067e565b8361161c5760405162461bcd60e51b815260040161067e90611c19565b6000848152600560205260409020548311156116945760405162461bcd60e51b815260206004820152603160248201527f53616c646f20626168616e2062616b7520746964616b2063756b757020756e74604482015270756b2070656d75736e6168616e20696e6960781b606482015260840161067e565b6000858152600a602090815260408083208590558683526005909152812080548592906116c2908490611cbf565b909155505060408051848152602081018490524291810191909152849086907fcf19fc6fd34f69ba1e245c6c96687e62544bb02b59133dc84a37555e7356167d90606001610a60565b6001546001600160a01b031633148061172e57506000546001600160a01b031633145b61174a5760405162461bcd60e51b815260040161067e90611d4c565b6000818152600f6020526040902054819060ff161561177b5760405162461bcd60e51b815260040161067e90611bd0565b826117c85760405162461bcd60e51b815260206004820152601860248201527f4b6f646520666f726d756c6120746964616b2076616c69640000000000000000604482015260640161067e565b6000838152600e6020526040908190208390555183907f1604a1e17e79e7de226f2b4ce7df3bc08176f7b6df27e0cd3f4f37967ba7a58590610bee9085904290918252602082015260400190565b6000546001600160a01b031633146118405760405162461bcd60e51b815260040161067e90611ce6565b600380546001600160a01b0319166001600160a01b0392909216919091179055565b6001546001600160a01b031633148061188557506000546001600160a01b031633145b6118a15760405162461bcd60e51b815260040161067e90611d4c565b600083815260056020908152604091829020805490859055825181815291820185905291810183905242606082015284907f203cbf77cb7bf62c63dea6576e65b8484d1b600c574b69690480c6bf46dc36429060800160405180910390a250505050565b600080600080600060a0868803121561191d57600080fd5b853594506020860135935060408601356002811061193a57600080fd5b94979396509394606081013594506080013592915050565b6000806040838503121561196557600080fd5b50508035926020909101359150565b60006020828403121561198657600080fd5b5035919050565b600080600080608085870312156119a357600080fd5b5050823594602084013594506040840135936060013592509050565b600080600080600060a086880312156119d757600080fd5b853594506020860135935060408601356003811061193a57600080fd5b600060208284031215611a0657600080fd5b81356001600160a01b0381168114611a1d57600080fd5b9392505050565b60008083601f840112611a3657600080fd5b50813567ffffffffffffffff811115611a4e57600080fd5b6020830191508360208260051b8501011115611a6957600080fd5b9250929050565b60008060008060008060008060c0898b031215611a8c57600080fd5b883597506020890135965060408901359550606089013567ffffffffffffffff80821115611ab957600080fd5b611ac58c838d01611a24565b909750955060808b0135915080821115611ade57600080fd5b50611aeb8b828c01611a24565b999c989b50969995989497949560a00135949350505050565b600060208284031215611b1657600080fd5b81358015158114611a1d57600080fd5b600080600060608486031215611b3b57600080fd5b505081359360208301359350604090920135919050565b6020808252818101527f416b736573206469746f6c616b3a2062756b616e206f70657261746f72204b42604082015260600190565b60208082526029908201527f4f706572617369206469746f6c616b3a20697a696e204b4220736564616e67206040820152683234b132b5bab5b0b760b91b606082015260800190565b60208082526029908201527f48617368207375646168207065726e616820646967756e616b616e2028616e74604082015268692d7265706c61792960b81b606082015260800190565b60208082526017908201527f4b6f646520626172616e6720746964616b2076616c6964000000000000000000604082015260600190565b634e487b7160e01b600052601160045260246000fd5b8082018082111561083657610836611c50565b634e487b7160e01b600052602160045260246000fd5b6080810160028610611ca357611ca3611c79565b9481526020810193909352604083019190915260609091015290565b8181038181111561083657610836611c50565b6080810160038610611ca357611ca3611c79565b60208082526019908201527f416b736573206469746f6c616b3a2062756b616e20444a424300000000000000604082015260600190565b634e487b7160e01b600052603260045260246000fd5b600060018201611d4557611d45611c50565b5060010190565b60208082526027908201527f416b736573206469746f6c616b3a2062756b616e2041646d696e204243206174604082015266617520444a424360c81b60608201526080019056fea264697066735822122046ec7cdb4716851a8dca3099a02a06a9a87c4965f0de4baab1589fbdb0d96aaa64736f6c63430008140033a2646970667358221220814c93d199a817457a075df10737c84a22d4da7355b12d19d34bac844616034164736f6c63430008140033",
  "linkReferences": {},
  "deployedLinkReferences": {}
}